:020000040800F2
:10000000C00A002045010008DD200008DF200008AC
:10001000E3200008E7200008EB20000800000000B3
:10002000000000000000000000000000EF200008B9
:10003000F120000800000000F3200008F52000086F
:100040005F0100085F0100085F0100085F01000810
:100050005F0100085F0100085F0100085F01000800
:100060005F0100085F0100085F0100085F010008F0
:100070005F0100085F0100085F0100085F010008E0
:100080005F0100085F0100085F0100085F010008D0
:100090005F0100085F0100085F0100085F010008C0
:1000A0005F0100085F0100085F0100085F010008B0
:1000B000F72000085F0100085F0100085F010008E9
:1000C0005F0100085F0100085F0100085F01000890
:1000D0005F0100085F0100085F0100085F01000880
:1000E0005F0100085F0100085F0100085F01000870
:1000F0005F0100085F0100085F0100085F01000860
:100100005F0100085F0100085F0100085F0100084F
:100110005F0100085F0100085F0100085F0100083F
:100120005F0100085F0100085F0100085F0100082F
:10013000DFF80CD004F07CFD004800474D2000089B
:10014000C00A00200648804706480047FEE7FEE751
:10015000FEE7FEE7FEE7FEE7FEE7FEE7FEE7FEE777
:1001600045020008310100080CB500200190009004
:100170006B48006840F480306949086000BF6848F7
:10018000006800F4003000900198401C0190009835
:1001900018B90198B0F5A06FF1D16148006810F46A
:1001A000003F02D00120009001E000200090009864
:1001B000012842D15B48006840F0100059490860AE
:1001C0000846006820F0030008600846006840F018
:1001D000020008605248406851494860084640683B
:1001E00048600846406840F48060486008464068BF
:1001F00020F47C1048600846406840F4E8104860ED
:100200000846006840F08070086000BF44480068FD
:1002100010F0007FFAD04248406820F003004049C7
:1002200048600846406840F00200486000BF3C4813
:10023000406800F00C000828F9D10CBD10B5FFF79C
:1002400093FF10BD10B53648006840F001003449F6
:10025000086008464068344908403149486008460B
:100260000068324908402E4908600846006820F4BA
:10027000802008600846406820F4FE0048604FF483
:100280001F008860FFF7DAFF4FF000602849086020
:1002900010BD10B5002100200022214B5B6803F047
:1002A0000C0121B1042906D0082928D107E0214BEF
:1002B000214C236027E01F4B1F4C236023E0184B89
:1002C0005B6803F47010164B5B6803F48032022302
:1002D00003EB904022B9194B4343174C23600DE0C8
:1002E0000F4B5B6813F4003F04D0144B4343124C94
:1002F000236003E00F4B43430F4C236003E00D4B9F
:100300000D4C236000BF00BF054B5B68C3F30313B4
:100310000B4CE15C084B1B68CB40074C236010BDC5
:1003200000100240002002400000FFF8FFFFF6FE30
:1003300008ED00E000127A000000002000093D00F6
:100340000400002031490143314A1160704770B503
:10035000002100230F22C4780CB32D4C246804F430
:10036000E064C4F5E064210AC1F10403CA404478A2
:1003700004FA03F18478144021430901254C0678DE
:10038000A155047804F01F050124AC4005786D11D7
:100390004FF0E02606EB8505C5F8004109E004783A
:1003A00004F01F050124AC401B4D0678761145F87A
:1003B000264070BD194A0A400243154B1B1F1A60A4
:1003C000704739B1124A121D12680243104B1B1DAF
:1003D0001A6006E00E4A121D126882430C4B1B1D68
:1003E0001A607047042808D14FF0E021096941F0F4
:1003F00004014FF0E022116107E04FF0E0210969AC
:1004000021F004014FF0E022116170470000FA056D
:100410000CED00E000E400E080E100E080FFFF1F61
:1004200010B50446CA48844208D10121042000F0D6
:1004300027FB0021042000F023FB46E0C54884424E
:1004400008D10121082000F01BFB0021082000F04A
:1004500017FB3AE0C048844208D10121102000F087
:100460000FFB0021102000F00BFB2EE0BB48844264
:1004700008D10121202000F003FB0021202000F002
:10048000FFFA22E0B648844208D10121402000F062
:10049000F7FA0021402000F0F3FA16E0B148844258
:1004A00008D10121802000F0EBFA0021802000F02B
:1004B000E7FA0AE0AC48844207D10121801500F038
:1004C000DFFA0021A01500F0DBFA10BD10B5012104
:1004D000084600F0D5FA0021012000F0D1FA10BD45
:1004E0002DE9F041024600250026002000230024CB
:1004F000002791F803C00CF00F0591F803C01CF021
:10050000100F03D091F802C04CEA050591F800C025
:10051000BCF1000F31D0146800202BE04FF0010C2B
:100520000CFA00F3B1F800C00CEA03069E4220D199
:1005300083004FF00F0C0CFA03F7BC4305FA03FCE1
:100540004CEA040491F803C0BCF1280F06D14FF027
:10055000010C0CFA00FCC2F814C00AE091F803C0C8
:10056000BCF1480F05D14FF0010C0CFA00FCC2F8A9
:1005700010C0401C0828D1D31460B1F800C0BCF1F1
:10058000FF0F34DD546800202EE000F1080C4FF01E
:10059000010808FA0CF3B1F800C00CEA03069E4209
:1005A00021D183004FF00F0C0CFA03F7BC4305FA7E
:1005B00003FC4CEA040491F803C0BCF1280F05D1F8
:1005C00000F1080C08FA0CF8C2F8148091F803C086
:1005D000BCF1480F07D100F1080C4FF0010808FAF0
:1005E0000CF8C2F81080401C0828CED35460BDE837
:1005F000F0814FF6FF710180022181700421C170EA
:1006000070470246002093680B4201D0012000E0B1
:10061000002070470146886880B27047024600207B
:10062000D3680B4201D0012000E000207047014652
:10063000C86880B2704701617047416170470AB174
:10064000016100E041617047C16070474FF4803242
:100650000A438261816182618269826970470246D0
:100660000020424B18684FF68073184040EA021091
:1006700008433E4B186070473D49C8617047F0B56C
:100680000A46002300240021002500F00046B6F1B0
:10069000004F02D1354EF16901E0344E7168C0F36C
:1006A000034583B200F44016B6F5401F08D121F08F
:1006B00070612E4E766826F070662C4F7E6012E0D8
:1006C00000F48016B6F5801F06D1032606FA05F45D
:1006D000A14341F0706106E0460D360103FA06F6CB
:1006E000B14341F0706122B1460D360103FA06F6BE
:1006F000314300F00046B6F1004F02D11B4EF161CC
:1007000001E01A4E7160F0BD30B500228B071C0F5E
:100710000F2303FA04F2154B08338C1053F82430DE
:100720009343124C08348D1044F8253023468C1026
:1007300053F824308C07240F00FA04F423430B4CA5
:1007400008348D1044F8253030BD0A4908607047E0
:1007500000080140000C014000100140001401405D
:1007600000180140001C0140002001400000014031
:1007700000002042DC002042DD48006840F001001B
:10078000DB49086008464068DA490840D8494860B3
:1007900008460068D8490840D549086008460068FE
:1007A00020F4802008600846406820F4FE0048607D
:1007B0004FF41F0088607047CD49096821F48031EB
:1007C000CB4A11601146096821F480211160B0F50F
:1007D000803F03D0B0F5802F0ED106E0C4490968F0
:1007E00041F48031C24A116007E0C149096841F40F
:1007F000A021BF4A116000E000BF00BF704710B5E4
:1008000001460022002300204A11012A02D1B84CDF
:10081000236806E0022A02D1B54C236A01E0B44CF9
:10082000636A01F01F02012494401C4201D00120A0
:1008300000E0002010BD38B5002000900024002505
:1008400000BF3120FFF7DBFF05460098401C0090F9
:100850000098B0F5A06F01D0002DF2D03120FFF745
:10086000CEFF08B1012400E00024204638BD014637
:1008700000209F4A106820F0F80040EAC100106094
:1008800070479E490860704702460020984B5868A0
:1008900020F47C1042EA01031843954B58607047DE
:1008A00096490866704701460020914A506820F03A
:1008B00003000843506070478D48406800F00C000A
:1008C0007047014600208A4A506820F0F000084333
:1008D0005060704701460020854A506820F4E0606F
:1008E00008435060704701460020814A506820F458
:1008F000605040EAC1005060704729B17C4A527A8A
:1009000002437B4B5A7204E0794A527A8243784B15
:100910005A7270477A490860704701460020744A4D
:10092000506820F440400843506070470021754AE9
:1009300011706F4A82F82010012802D0042808D1D3
:1009400003E001216F4A117004E005216D4A117026
:1009500000E000BF00BF70476B4908607047644902
:10096000096A0143624A1162704767494439086065
:10097000704730B500210022002400235C4D6D68D3
:1009800005F00C0121B1042905D0082923D105E087
:100990005E4D056022E05D4D05601FE0544D6D68C1
:1009A00005F47012524D6D6805F48034022505EB94
:1009B00092421CB9564D554305600BE04C4D6D6895
:1009C00015F4003F03D0524D5543056002E04F4DF2
:1009D0005543056002E04D4D056000BF00BF444D2A
:1009E0006D6805F0F00109094A4D6B5C0568DD4052
:1009F00045603F4D6D6805F4E061090A454D6B5C4B
:100A00004568DD4085603A4D6D6805F46051C90A5E
:100A1000404D6B5C4568DD40C560354D6D6805F443
:100A20004041890B3C4D6B5CC568B5FBF3F5056136
:100A300030BD29B12E4A526902432D4B5A6104E060
:100A40002B4A526982432A4B5A61704729B1284A7E
:100A500092690243264B9A6104E0254A92698243D7
:100A6000234B9A61704729B1214AD2690243204B36
:100A7000DA6104E01E4AD26982431D4BDA61704795
:100A800029B11B4AD2680243194BDA6004E0184AC4
:100A9000D2688243164BDA60704729B1144A126952
:100AA0000243134B1A6104E0114A12698243104B4E
:100AB0001A61704714494039086070470F49C8648B
:100AC00070470B49C87170470948406A40F0807010
:100AD00007494862704701460020054A92680A4269
:100AE00001D0012000E00020704701498872704762
:100AF000001002400000FFF8FFFFF6FE0000424237
:100B0000D8004242201002408004424200127A0083
:100B100000093D00140000202400002010B5044608
:100B2000BE48844208D101218014FFF7A9FF0021AB
:100B3000A014FFF7A5FF16E0B948844208D10121AF
:100B40000014FFF7AAFF00212014FFF7A6FF0AE018
:100B5000B448844207D10121C013FFF79EFF002152
:100B6000E013FFF79AFF10BD10B50022028802F4CF
:100B700041520B884C8823438C882343CC882343E1
:100B80000C8923434C8923438C892343CC892343F9
:100B90001A430280838B4FF2FF74234083830B8AB6
:100BA000038210BD2DE9F04F85B005460C464FF08D
:100BB000000902274FF000084FF0010B0026B24653
:100BC000A88B4FF240010840A88302202884B5F882
:100BD0001C90A068022801D100BF38E0A08810B99D
:100BE0004FF0010B01E04FF0020B8D48854200D120
:100BF00000E000BF6846FFF7BCFEDDF800A0E0881B
:100C0000B0F5007F0AD14FEA1A2000EB80004000C7
:100C1000A168B0FBF1F0401D86B20BE04FEA4B102B
:100C2000BAFBF0F000EB80004000A168B0FBF1F0EF
:100C3000401D86B20A20B6FBF0F606F00108A6EBCE
:100C40000800C0F34F074FF6FF7000EA0828022F94
:100C500001DBFF2F02DD02274FF00008E08840EAA9
:100C6000080038432884A088A18908436188084384
:100C70002188084340F4006040EA0909A5F81C9067
:100C800005B0BDE8F08F0021018041808180C180E6
:100C9000018141818181C181072101827047002149
:100CA000018041808180C180022181600021818199
:100CB000704721B1028842F04002028004E00288BD
:100CC0004FF6BF731A400280704721B1828B42F405
:100CD0008062828304E0828B4FF6FF331A40828366
:100CE000704730B5002400230C110125A540ABB29C
:100CF0001AB185881D43858002E085889D438580E3
:100D000030BD1AB183880B43838002E083888B4314
:100D10008380704781817047014688897047A1F5BB
:100D20007E42FF3A04D0028842F48072028004E0DE
:100D300002884FF6FF631A400280704721B1828813
:100D400042F00402828004E082884FF6FB731A406E
:100D50008280704702884FF2FF731A400280028837
:100D60000A4302807047018841F480510180704736
:100D700021B1028842F40052028004E002884DF65C
:100D8000FF731A400280704702460020012901D0FB
:100D9000108B00E0908A70470146088A7047B1F5D1
:100DA000804F04D1028842F48042028004E002882D
:100DB0004BF6FF731A4002807047024600201389E9
:100DC0000B4201D0012000E000207047CA4302819D
:100DD0007047F0B50246002000240023002501F0F2
:100DE0000F070126BE40B4B20B1101269E40B3B2DC
:100DF000968806EA03051689264202D00DB1012025
:100E000000E00020F0BD10B5002201F00F04012326
:100E1000A3409AB2D343038110BD000000300140CB
:100E200000380040003C004010B50446FE488442B3
:100E300008D10121C014FFF723FE0021E014FFF7C1
:100E40001FFEC4E0B4F1804F08D101210846FFF72E
:100E500024FE00210120FFF720FEB8E0F348844281
:100E600008D101210220FFF718FE00210220FFF720
:100E700014FEACE0EE48844208D101210420FFF7C3
:100E80000CFE00210420FFF708FEA0E0E9488442A0
:100E900008D101210820FFF700FE00210820FFF7FC
:100EA000FCFD94E0E448844208D101211020FFF7C2
:100EB000F4FD00211020FFF7F0FD88E0DF488442B8
:100EC00008D101212020FFF7E8FD00212020FFF7B5
:100ED000E4FD7CE0DA48844208D101214014FFF7A8
:100EE000CFFD00216014FFF7CBFD70E0D5488442B0
:100EF00009D10121C804FFF7C3FD00214FF40020F0
:100F0000FFF7BEFD63E0D048844209D10121080506
:100F1000FFF7B6FD00214FF48010FFF7B1FD56E05A
:100F2000CA48844209D101214805FFF7A9FD0021E3
:100F30004FF40010FFF7A4FD49E0C548844208D1F2
:100F400001214020FFF7A9FD00214020FFF7A5FD6A
:100F50003DE0C048844208D101218020FFF79DFD7B
:100F600000218020FFF799FD31E0BB48844208D181
:100F700001218015FFF791FD0021A015FFF78DFDE0
:100F800025E0B648844209D101210804FFF778FD25
:100F900000214FF48030FFF773FD18E0B048844221
:100FA00009D101214804FFF76BFD00214FF4003007
:100FB000FFF766FD0BE0AB48844208D101218804AD
:100FC000FFF75EFD00214FF48020FFF759FD10BDB3
:100FD00000220288944B98420ED0994B98420BD035
:100FE000B0F1804F08D0914B984205D0904B984279
:100FF00002D0904B984204D14FF68F731A404B8821
:101000001A438D4B984207D08C4B984204D04FF630
:10101000FF431A40CB881A4302808B8883850B8854
:101020000385814B98420BD0854B984208D08B4B5F
:10103000984205D08A4B984202D08A4B984201D1FF
:101040000B7A038601238382704770B50024002247
:101050000023058C4FF6FE7635400584028C83888C
:10106000048B4FF68F752C40B51E2C400D882C43F9
:10107000751E2A400D892A434D882A436A4DA8428D
:101080000BD06F4DA84208D0744DA84205D0744DC6
:10109000A84202D0734DA84213D14FF6F7752A40EB
:1010A0004D892A434FF6FB752A408D882A434FF617
:1010B000FF652B404FF6FF552B408D892B43CD8983
:1010C0002B4383800483CD888586028470BD70B5F0
:1010D000002400220023058C4FF6EF76354005846E
:1010E000028C8388048B48F6FF752C404FF6FF4531
:1010F0002C400D884FF6FF7606EA05252C434FF667
:10110000DF752A400D8906EA05152A434D8806EA4F
:1011100005152A43444DA84202D0494DA8421DD18D
:101120004FF67F752A404D894FF6FF7606EA051582
:101130002A434FF6BF752A408D8806EA05152A43D3
:101140004FF6FF352B404FF2FF752B408D8906EA95
:1011500085052B43CD8906EA85052B4383800483CF
:10116000CD880587028470BD70B50024002200235D
:10117000058C4FF6FF6635400584028C8388848B8E
:101180004FF68F752C404FF6FC752C400D882C4384
:101190004FF6FF552A400D894FF6FF7606EA0525E2
:1011A0002A434D8806EA05252A431F4DA84202D04E
:1011B000234DA8421DD14FF2FF752A404D894FF6AD
:1011C000FF7606EA05252A434FF6FF352A408D882B
:1011D00006EA05252A434EF6FF752B404DF6FF75AE
:1011E0002B408D8906EA05152B43CD8906EA0515A6
:1011F0002B4383808483CD888587028470BD70B53E
:10120000002200230024058C4EF6FF76354005842D
:10121000038C8488828B48F6FF752A404FF6FF4581
:101220002A400D8820E00000002C0140000400400E
:1012300000080040000C0040001000400014004076
:1012400000340140004C0140005001400054014076
:1012500000180040001C00400020004000400140F9
:1012600000440140004801404FF6FF7606EA05259C
:101270002A434DF6FF752B400D8906EA05352B43B1
:101280004D8806EA05352B43FA4DA84202D0FA4DA7
:10129000A84208D14BF6FF752C408D894FF6FF769A
:1012A00006EA85152C4384808283CD88A0F84050BF
:1012B000038470BD828B4FF2FF331A408283828B8E
:1012C0004FF6FF7303EA01231A4382837047F0B598
:1012D0000C461546002200210026078C4EF6FF7CA6
:1012E00007EA0C070784828B018C4FF6FF7707EA29
:1012F000043640F6FF473A404FF6FF7707EA0527E6
:101300003A434FF6FF7707EA03373A43D94FB842DB
:101310000ED0D94FB8420BD0B0F1804F08D0D74F84
:10132000B84205D0D64FB84202D0D64FB84206D107
:101330004DF6FF77394046F48057394305E047F6CC
:10134000FF57394044F48057394382830184F0BD0C
:10135000828B4FF6F3731A408283828B0A43828317
:101360007047F0B50C461546002200210026078C78
:101370004FF6FF6C07EA0C070784828B018C4FF64F
:10138000FF7707EA04264FF60C773A404FF6FF77CF
:1013900007EA03172F433A43B64FB8420ED0B64F71
:1013A000B8420BD0B0F1804F08D0B44FB84205D04E
:1013B000B34FB84202D0B34FB84206D14FF6FF57F1
:1013C000394046F48077394305E04FF2FF57394002
:1013D00044F48077394382830184F0BD028B4FF25D
:1013E000FF331A400283028B4FF6FF7303EA012397
:1013F0001A4302837047F0B50C46154600220021BF
:101400000026078C4FF6EF7C07EA0C070784028B57
:10141000018C4FF6FF7707EA041640F6FF473A4083
:101420004FF6FF7707EA03373A434FF6FF7707EAAD
:1014300005273A438F4FB8420ED08F4FB8420BD09A
:10144000B0F1804F08D08D4FB84205D08C4FB842D4
:1014500002D08C4FB84206D14FF6DF77394046F0C4
:101460001007394305E04FF65F77394044F0100725
:10147000394302830184F0BD028B4FF6F3731A40A7
:101480000283028B0A4302837047F0B50C4615466F
:1014900000220021068C4FF6FE773E400684028B28
:1014A000018C4FF60C7632407E1C06EA03162E4362
:1014B0003243704EB0420ED06F4EB0420BD0B0F1FE
:1014C000804F08D06D4EB04205D06D4EB04202D074
:1014D0006C4EB04206D14FF6FD76314044F0010625
:1014E000314305E04FF6F576314044F001063143D3
:1014F00002830184F0BD70B505460C465D48854207
:101500000ED05D4885420BD0B5F1804F08D05B48C6
:10151000854205D05A48854202D05A48854200D1BA
:1015200000E000BF208850B92389A288618828463E
:10153000FFF7ABFFE1882846FFF79EFF25E02088F4
:1015400004280AD12389A28861882846FFF753FF1F
:10155000E1882846FFF742FF17E0208808280AD1D3
:101560002389A28861882846FFF7FBFEE188284688
:10157000FFF7EEFE09E02389A28861882846FFF77D
:10158000A6FEE1882846FFF795FE70BD2DE9F041E3
:1015900005460C4600260127608808B9022600E0AF
:1015A0000026A088012801D1022700E00127208819
:1015B000A0B92389A28861882846FFF766FFE188E1
:1015C0002846FFF759FF23893A4631462846FFF758
:1015D00012FFE1882846FFF701FF13E02389A28864
:1015E00061882846FFF707FFE1882846FFF7F6FEE7
:1015F00023893A4631462846FFF747FFE1882846C7
:10160000FFF73AFFBDE8F0810A884B881A438B88C0
:101610001A43CB881A430B891A434B891A438B8987
:101620001A43A0F8442070474FF6FF7181800021D3
:101630000180C1804180017270470021018041809A
:101640008180C180018141818181C18170470021F8
:1016500001804180012181800021C180018170478A
:101660000021018041808180C1800181418181818F
:1016700070470000002C014000340140000400408D
:1016800000080040000C004021B1028842F0010235
:10169000028004E002884FF6FE731A400280704711
:1016A00031B1B0F8442042F40042A0F8442005E0F3
:1016B000B0F84420C2F30E02A0F8442070471AB1DB
:1016C00083890B43838102E083898B438381704745
:1016D0008182704741EA0203A0F8483070471AB18E
:1016E00083890B43838102E083898B438381704725
:1016F00001894FF6F8721140018170470A460021B6
:1017000001894FF68F73194011430181704730B53D
:1017100004460D4629462046FFF7F0FF208940F099
:101720000700208130BD2DE9F04104460D461646E4
:101730001F46602D06D13B46012231462046FFF769
:101740005AFE05E03B46012231462046FFF79DFE4A
:1017500029462046FFF7D2FF208940F0070020816C
:10176000BDE8F08130B50C4600210189C9B24FF6C1
:10177000FF7505EA0325154325432943018130BD43
:101780002DE9F04105460E4617469846002443468B
:101790003A4631462846FFF7E5FF2C894FF6F870A8
:1017A000044044F007044FF68F70044044F0700486
:1017B0002C81BDE8F081F0B504460D4616461F4663
:1017C0003B46324629462046FFF7CCFF208940F4AD
:1017D00080402081F0BD0185828270470A46002149
:1017E00001884FF68F731940114301807047F0B59F
:1017F0000C4615461E460021002200230189028B5B
:10180000038C4FF6F877394021434FF6FC473A40B6
:1018100040F201173A434FF6DD773B404FF6FF7732
:1018200007EA06172F433B43018102830384F0BD7F
:101830000A460021018B4FF68F7319401143018333
:1018400070470A460021018B48F6FF7319404FF696
:10185000FF7303EA02231943018370470A460021FC
:10186000818B4FF68F7319401143818370470A466D
:101870000021818B48F6FF7319404FF6FF7303EA8E
:10188000022319438183704721B1028842F080020C
:10189000028004E002884FF67F731A40028070478E
:1018A00021B1828842F00402828004E082884FF6EF
:1018B000FB731A408280704721B1828842F008028F
:1018C000828004E082884FF6F7731A408280704766
:1018D00021B1828842F00102828004E082884FF6C2
:1018E000FE731A40828070470A460021018B4FF632
:1018F000F77319401143018370470A460021018B99
:101900004FF2FF7319404FF6FF7303EA02231943A6
:10191000018370470A460021818B4FF6F773194007
:101920001143818370470A460021818B4FF2FF7378
:1019300019404FF6FF7303EA02231943818370476E
:101940000A460021018B4FF6FB73194011430183B6
:1019500070470A460021018B4FF6FF3319404FF6BE
:10196000FF7303EA02231943018370470A460021EB
:10197000818B4FF6FB7319401143818370470A46F0
:101980000021818B4FF6FF3319404FF6FF7303EAB6
:1019900002231943818370470A460021018B4FF6C9
:1019A0007F7319401143018370470A460021018B60
:1019B000C1F30E014FF6FF7303EA022319430183BB
:1019C00070470A460021818B4FF67F7319401143FF
:1019D000818370470A460021818BC1F30E014FF6C7
:1019E000FF7303EA02231943818370470A460021EB
:1019F000018C4FF6FD7319401143018470470A466C
:101A00000021018C4FF6F773194011430184704790
:101A10000A460021018C4FF6DF7319404FF6FF7321
:101A200003EA02131943018470470A460021018C1E
:101A30004FF67F7319404FF6FF7303EA0213194301
:101A4000018470470A460021018C4FF6FF5319406C
:101A50004FF6FF7303EA02231943018470470A46D5
:101A60000021018C4FF2FF7319404FF6FF7303EA18
:101A700002231943018470470A460021018C4DF668
:101A8000FF7319404FF6FF7303EA023319430184D1
:101A9000704730B5002301248C40A3B2048C9C43D2
:101AA0000484048C02FA01F5ADB22C43048430BDE9
:101AB00030B5002304248C40A3B2048C9C430484DE
:101AC000048C02FA01F5ADB22C43048430BD70B52C
:101AD0000346002000241846183001258D40ACB282
:101AE0001D8CA5431D8409B1082909D100EB6100B3
:101AF000056825F0700505600568154305600EE072
:101B00000D1FC5F34E052844056825F4E045056022
:101B100005684FF6FF7606EA02263543056070BD7C
:101B200021B1028842F00202028004E002884FF6EE
:101B3000FD731A400280704721B1028842F004020E
:101B4000028004E002884FF6FB731A40028070475F
:101B500021B1828842F08002828004E082884FF6C0
:101B60007F731A408280704702884FF6F7731A40DD
:101B7000028002880A430280704782884FF68F7382
:101B80001A40828082880A438280704702894FF619
:101B9000F8731A40028102890A4302817047028960
:101BA0004FF67F731A40028102890A43028170470F
:101BB00081847047818570478186704701877047AF
:101BC00081877047A0F84010704702884FF6FF43A6
:101BD0001A40028002880A43028070470146888EBC
:101BE00070470146088F70470146888F704701464D
:101BF000B1F8400070470146888C70470146088D57
:101C0000704702460020138A0B4201D0012000E0F9
:101C100000207047CA430282704730B50246002058
:101C200000230024158A05EA0103958905EA0104C9
:101C300013B10CB1012000E0002030BDCA43028284
:101C40007047000010B50446FB48844209D10121C9
:101C50008803FEF715FF00214FF48040FEF710FFC8
:101C600032E0F648844209D101214804FEF715FF0D
:101C700000214FF40030FEF710FF25E0F0488442C9
:101C800009D101218804FEF708FF00214FF48020CC
:101C9000FEF703FF18E0EB48844209D10121C80494
:101CA000FEF7FBFE00214FF40020FEF7F6FE0BE0EE
:101CB000E548844208D101210805FEF7EEFE002127
:101CC0004FF48010FEF7E9FE10BD2DE9F04786B015
:101CD00005460E460024A24600BFA1460027B08953
:101CE00000B100BF2F462C8A4CF6FF700440F088EC
:101CF00004432C82AC894EF6F3100440B08831893D
:101D00000843718908430443AC81AC8A4FF6FF4015
:101D10000440B0890443AC8201A8FEF72AFEC648FD
:101D2000874202D1DDF810A001E0DDF80CA0A889FF
:101D300010F4004F08D00AEBCA0000EB0A1031681B
:101D40004900B0FBF1F807E00AEBCA0000EB0A100B
:101D500031688900B0FBF1F86420B8FBF0F00401B1
:101D60002009642101FB1089A88910F4004F08D0D4
:101D7000322000EBC900B0FBF1F000F00700044393
:101D800008E0322000EB09106421B0FBF1F000F014
:101D90000F0004432C8106B0BDE8F0874FF41651C4
:101DA000016000218180C18001810C2141810021DD
:101DB0008181704710B502460020108A4FF2FF0360
:101DC00018400B884C8823438C882343CC882343BA
:101DD0001843108210BD0021018041808180C180A4
:101DE000704721B1828942F40052828104E08289E5
:101DF0004DF6FF731A4082817047F0B50346002408
:101E0000002600250020A1F510676A3F00D100BF21
:101E10001846C1F3421401F01F06012707FA06F520
:101E2000012C01D10C3004E0022C01D1103000E073
:101E300014301AB107682F43076002E00768AF4308
:101E40000760F0BD1AB1838A0B43838202E0838A64
:101E50008B4383827047028A4FF6F0731A400282E6
:101E6000028A0A430282704782894FF2FF731A4046
:101E7000828182890A438281704721B1828942F03E
:101E80000202828104E082894FF6FD731A4082814A
:101E90007047028A4FF6DF731A400282028A0A43B1
:101EA0000282704721B1028A42F48042028204E039
:101EB000028A4BF6FF731A4002827047C1F3080290
:101EC0008280704701468888C0F308007047818986
:101ED00041F0010181817047028BD2B20283028BF3
:101EE00042EA012202837047028B02F47F4202839E
:101EF000028B0A430283704721B1828A42F020029A
:101F0000828204E0828A4FF6DF731A408282704731
:101F100021B1828A42F01002828204E0828A4FF666
:101F2000EF731A408282704721B1828A42F0080220
:101F3000828204E0828A4FF6F7731A4082827047E9
:101F400021B1828942F40042828103E08289C2F396
:101F50000E028281704721B1828A42F4006282823D
:101F600004E0828A4FF2FF731A4082827047828AAD
:101F70004FF6FB731A408282828A0A43828270473C
:101F800021B1828A42F00202828204E0828A4FF604
:101F9000FD731A408282704702460020B1F5007F2F
:101FA00000D100BF13880B4201D0012000E00020C7
:101FB000704701F40072B2F5007F00D100BFCA4340
:101FC0000280704770B502460024002300250020DF
:101FD000A1F510666A3E00D100BFC1F3421501F0C1
:101FE0001F03012606FA03F3012D02D1968933401F
:101FF00006E0022D02D1168A334001E0968A334072
:102000000C12012606FA04F41688344013B10CB100
:10201000012000E0002070BD10B500220023A1F5D2
:1020200010646A3C00D100BF0A1201249440A3B29C
:10203000DC43048010BD0000003801400044004033
:1020400000480040004C00400050004010B54820BF
:1020500001F026FE00F05CF800F0DFFA0EA002F0BE
:1020600099FE00F02BFF00F06CFF00F017FF00F06E
:102070006EFE1149114801F069FA11A002F08AFEC2
:1020800006E002F09AFA14480078042800DB00E029
:10209000F7E700BF002010BD20D2B0BBF0CDF8C2E2
:1020A000E7CACAC5E42050696E672064656D6F2079
:1020B00056312E30200D0A00B1000020A90000206A
:1020C00020D3A6D3C3B3CCD0F2D6B4D0D0D6D0A12F
:1020D000ADA1AD200D0A0000C5000020704700BF73
:1020E000FEE700BFFEE700BFFEE700BFFEE7704768
:1020F00070477047704710B501218807FFF78DFDC5
:1021000028B100F0CAFF01218807FFF797FD10BD35
:1021100000B585B0012144F20400FEF797FC4FF4AE
:102120000070ADF8100018208DF8130003208DF812
:10213000120004A92148FEF7D3F94FF48060ADF8EE
:10214000100004208DF8130004A91C48FEF7C8F9FC
:102150004FF4E13000900020ADF80400ADF8060027
:10216000ADF80800ADF80C000C20ADF80A00694687
:102170001348FFF7AAFD01211148FFF732FE05B011
:1021800000BD70B504460D46E1B20D48FFF796FE5E
:1021900000BF40210A48FFF7FFFE0028F9D0204683
:1021A00070BD10B5044600BF20210548FFF7F4FEBE
:1021B0000028F9D00248FFF785FE10BD0008014055
:1021C0000038014010B5A02000F03DFA08B9012008
:1021D00010BD00F089F90020FAE72DE9F04106462C
:1021E0000F46154600F06BF9A02000F08BF900F0C7
:1021F000D0F900B125E0F8B200F084F900F0C9F997
:1022000000B11EE000F05BF9A12000F07BF900F0C6
:10221000C0F900B115E000240CE000F09BF9305546
:10222000681EA04202D000F0D0F901E000F0E3F90E
:10223000601C84B2AC42F0DB00F056F90120BDE82E
:10224000F08100F051F90020F9E72DE9F047074649
:1022500088469146464600242BE014B116F0070F3D
:102260001CD100F041F900250AE000F028F9A02077
:1022700000F048F900F08DF900B903E0681C85B260
:10228000642DF2DB00BFB5F57A7F00D118E0F0B223
:1022900000F038F900F07DF900B111E0385D00F090
:1022A00031F900F076F900B10AE0701C86B2601CCA
:1022B00084B24C45D1DB00F017F90120BDE8F0876E
:1022C00000F012F90020F9E710B5C0B0002404E0D6
:1022D000FF200DF80400601C84B2FF2CF8DD4FF4E1
:1022E000807200216846FFF7B0FF20B936A002F0E7
:1022F00051FD40B010BD39A002F04CFD00BFF8E721
:1023000001B502E00098401E009000980028F9D125
:1023100008BD10B5ADF5007DFFF754FF20B934A01E
:1023200002F038FD00BFFEE7002403E040A90C5591
:10233000601C84B2FF2CF9DD4FF48072002140A8AC
:10234000FFF783FF28B930A002F024FD0DF5007DD2
:1023500010BD32A002F01EFD3548FFF7D1FF4FF44B
:10236000807200216846FFF738FF18B931A002F0EB
:1023700011FDEBE734A002F00DFD00241CE01DF878
:10238000040040A9095D884208D01DF8041035A05A
:1023900002F000FD35A002F0FDFCD7E71DF80410A7
:1023A0003BA002F0F7FC04F00F000F2802D10AA0B6
:1023B00002F0F0FC601C84B2FF2CE0DD36A002F0DD
:1023C000E9FC00BFFEE70000B2C1B3FD65657072B5
:1023D0006F6DB3F6B4EDA3A10D0A0000B2C1B3FD59
:1023E000656570726F6DB3C9B9A6A3A10D0A00002F
:1023F000C3BBD3D0BCECB2E2B5BDB4AED0D0454582
:1024000050524F4D210D0A00D0B4656570726F6D4A
:10241000B3F6B4EDA3A10D0A00000000D0B46565C9
:1024200070726F6DB3C9B9A6A3A10D0A00000000B8
:10243000FFFF0F00B6C1656570726F6DB3F6B4ED46
:10244000A3A10D0A00000000B6C1656570726F6D32
:10245000B3C9B9A6A3ACCAFDBEDDC8E7CFC2A3BA53
:102460000D0A00003078253032582000B4EDCEF34C
:102470003A454550524F4DB6C1B3F6D3EBD0B4C830
:10248000EBB5C4CAFDBEDDB2BBD2BBD6C2000000F4
:102490002025303258000000656570726F6DB6C13E
:1024A000D0B4B2E2CAD4B3C9B9A60D0A0000000084
:1024B000002001E0411CC8B20A28FBDB704710B5C0
:1024C00080206949086040200860FFF7F1FF802004
:1024D0006549091D0860FFF7EBFF40206249091DAF
:1024E0000860FFF7E5FF10BD10B580205E49091DAB
:1024F00008604020091F0860FFF7DAFF80205A4972
:10250000086010BD70B50446002520E014F0800F6F
:1025100003D080205449086003E080205249091DFF
:102520000860FFF7C5FF40204F490860FFF7C0FF74
:1025300040204D49091D0860072D02D18020091F48
:1025400008606006040EFFF7B3FF681CC5B2082DD3
:10255000DCDB70BD70B50024002516E06006040EBB
:10256000402041490860FFF7A3FF3F480838006852
:1025700010F0800F01D0601CC4B240203A49091D00
:102580000860FFF795FF681CC5B2082DE6DB204602
:1025900070BD10B5802034490860FFF789FF4020E6
:1025A00031490860FFF784FF2F480838006810F0B1
:1025B000800F01D0012400E0002440202A49091D99
:1025C0000860FFF775FF204610BD10B58020264932
:1025D000091D0860FFF76CFF402023490860FFF7E2
:1025E00067FF40202049091D0860FFF761FF802038
:1025F0001D49086010BD10B580201B490860FFF719
:1026000057FF402018490860FFF752FF4020164945
:10261000091D0860FFF74CFF10BD08B50121082017
:10262000FEF714FAC020ADF8000003208DF8020078
:1026300014208DF8030069460B481038FDF750FF51
:10264000FFF752FF08BD70B50446FFF7E6FFFFF73E
:1026500036FF2046FFF756FFFFF79BFF0546FFF7C3
:1026600043FF284670BD0000100C014000B587B044
:1026700001212420FEF7EAF901210803FEF7E6F91B
:102680002020ADF8040003208DF8060018208DF8F6
:10269000070001A9FE48FDF723FF4020ADF8040024
:1026A00001A9FB48FDF71CFF8020ADF8040001A93B
:1026B000F748FDF715FF1020ADF804008DF807006E
:1026C00001A9F348FDF70CFF0020ADF808004FF416
:1026D0008270ADF80A000020ADF80C000220ADF8C1
:1026E0000E000120ADF810004002ADF812000820E5
:1026F000ADF814000020ADF816000720ADF8180062
:1027000002A9E448FEF730FA0121E248FEF7D1FAC7
:1027100007B000BD10B5044600BF0221DD48FEF73A
:102720004CFB0028F9D02146DA48FEF7F3FA00BF47
:102730000121D848FEF741FB0028F9D0D548FEF723
:10274000EBFAC0B210BD10B500241021D048FDF73F
:1027500074FF0520FFF7DEFF00BFFF20FFF7DAFF61
:10276000044614F0010FF8D11021C948FDF763FFAA
:1027700010BD10B51021C648FDF75FFF0620FFF71A
:10278000C9FF1021C248FDF756FF10BD10B5044621
:10279000FFF7EFFFFFF7D7FF1021BD48FDF74DFF13
:1027A0002020FFF7B7FFC4F30740FFF7B3FFC4F3E0
:1027B0000720FFF7AFFFE0B2FFF7ACFF1021B448EE
:1027C000FDF739FFFFF7BFFF10BD10B5FFF7D1FFD1
:1027D0001021AF48FDF731FFC720FFF79BFF102105
:1027E000AB48FDF728FFFFF7AEFF10BD70B50546FB
:1027F0000C461646FFF7BDFF1021A548FDF71DFF4B
:102800000220FFF787FFC4F30740FFF783FFC4F3FD
:102810000720FFF77FFFE0B2FFF77CFFB6F5807F70
:1028200001DD4FF4807603E02878FFF773FF6D1C1D
:102830003000A6F101018EB2F6D110219448FDF7C7
:10284000FAFEFFF780FF70BD2DE9F05F07460E46E8
:1028500014464FF00008C146C2460025AB4606F0BC
:10286000FF0ACAF10000C5B22046E11704EB11616E
:10287000C1F30728E11704EB11610912A4EB012150
:1028800001F0FF09BAF1000F20D1B8F1000F05D116
:10289000224631463846FFF7A9FF64E009E04FF4CD
:1028A000807231463846FFF7A1FF06F5807607F5BE
:1028B00080775FEA0800A8F1010101F0FF08EED17E
:1028C0004A4631463846FFF791FF4CE0B8F1000F19
:1028D00018D1A94510DDA9EB050000F0FF0B2A4631
:1028E00031463846FFF782FF2E442F445A46314680
:1028F0003846FFF77BFF36E0224631463846FFF781
:1029000075FF30E0601B84B22046E11704EB1161D3
:10291000C1F30728E11704EB11610912A4EB0121AF
:1029200001F0FF092A4631463846FFF75FFF2E4483
:102930002F4409E04FF4807231463846FFF756FFC6
:1029400006F5807607F580775FEA0800A8F10101B7
:1029500001F0FF08EED1B9F1000F04D04A4631462C
:102960003846FFF743FFBDE8F09F70B505460C46BB
:10297000164610214648FDF760FE0320FFF7CAFE09
:10298000C4F30740FFF7C6FEC4F30720FFF7C2FEFB
:10299000E0B2FFF7BFFE04E0FF20FFF7BBFE2870A8
:1029A0006D1C3000A6F101018EB2F5D1102138481E
:1029B000FDF741FE70BD2DE9F04100240025002601
:1029C000002710213248FDF738FE9F20FFF7A2FEB6
:1029D000FF20FFF79FFE0546FF20FFF79BFE064600
:1029E000FF20FFF797FE074610212948FDF723FE39
:1029F000280440EA062040EA07042046BDE8F081AA
:102A000010B5002410212248FDF717FEAB20FFF778
:102A100081FEFF20FFF77EFEFF20FFF77BFEFF20F9
:102A2000FFF778FEFF20FFF775FE044610211848D7
:102A3000FDF701FE204610BD10B5044610211448D4
:102A4000FDF7FBFD0320FFF765FEC4F30740FFF72A
:102A500061FEC4F30720FFF75DFEE0B2FFF75AFE08
:102A600010BD10B5FF20FFF755FE10BD10B5044690
:102A700000BF02210748FEF7A0F90028F9D021463F
:102A80000448FEF747F900BF0121024804E00000B6
:102A90000008014000300140FEF78FF90028F3D014
:102AA0005C48FEF739F910BD10B510215A48FDF702
:102AB000C4FDB920FFF72EFE10215748FDF7BBFDDE
:102AC00010BD10B510215448FDF7B7FDAB20FFF73E
:102AD00021FE10215048FDF7AEFD10BD10B5034694
:102AE00007E018780C78A04201D0002010BD5B1CD4
:102AF000491C1000A2F10104A2B2F2D10120F5E7B5
:102B000001B502E00098401E009000980028F9D11D
:102B100008BDFFF7ABFDFFF773FF40490860C82011
:102B2000FFF7EEFFFFF747FF3D4908603B480268AB
:102B3000084601683BA002F02DF939480068474972
:102B400088422DD146A002F025F94FF47040FFF7DE
:102B50001DFE4B224FF470414A48FFF775FE49496C
:102B600049A002F017F94B224FF470414C48FFF78F
:102B7000FCFE44494BA002F00DF94B224849414864
:102B8000FFF7ACFF4D49087008460078012803D1D3
:102B90004BA002F0FFF806E052A002F0FBF802E0C2
:102BA00059A002F0F7F8FFF77FFF00BFFEE710B56E
:102BB000FFF75CFDFFF724FF18490860C820FFF706
:102BC0009FFFFFF7F8FE1649086008460068234992
:102BD00088421DD14FF47040FFF7D8FD4B224FF4CF
:102BE00070412848FFF730FE4B224FF470412C48CB
:102BF000FFF7BBFE4B222A492248FFF76FFF2F4900
:102C0000087008460078012800D110BD0020FCE7BC
:102C10000020FAE700300140000801407400002065
:102C2000780000200D0A20466C61736849442069D1
:102C30007320307825582C20204D616E75666163B5
:102C40007475726572204465766963652049442015
:102C5000697320307825580D0A0000001740EF00F6
:102C60000D0A20BCECB2E2B5BDBBAAB0EEB4AED04A
:102C7000D0666C6173682057323551363420210D8F
:102C80000A000000280000200D0A20D0B4C8EBB5CF
:102C9000C4CAFDBEDDCEAAA3BA2573200D0900006B
:102CA000D00000200D0A20B6C1B3F6B5C4CAFDBEDF
:102CB000DDCEAAA3BA2573200D0A00007C000020F7
:102CC0000D0A20384DB4AED0D0666C6173682857B9
:102CD000323551363429B2E2CAD4B3C9B9A6210A71
:102CE0000D0000000D0A20384DB4AED0D0666C61E6
:102CF00073682857323551363429B2E2CAD4CAA78C
:102D0000B0DC210A0D0000000D0A20BBF1C8A1B201
:102D1000BBB5BD20573235513634204944210A0D08
:102D20000000000010B5002412222146EB48FFF7F6
:102D30008CFA0A2000F0D0FF10BD10B5122200213D
:102D4000E748FFF74AFA0A2000F0ECFF10BD08B58B
:102D5000E248E4490A68026089888180E24909689A
:102D6000C0F80610E1490968C0F80A10E04909688E
:102D7000C0F80E10DF490968C0F81210DE4800786C
:102D800010B9DEA002F006F8DB480078022825D151
:102D9000FFF7D3FFD2480078D8B9D1484078082847
:102DA00017D1CF488078DC2813D1DCA001F0F2FFE6
:102DB000CA48CB49D1F80610C0F80610C849D1F866
:102DC0000A10C0F80A10C649D1F80E10C0F80E104B
:102DD00004E0D7A001F0DEFFFFF7A4FFC6480078AB
:102DE000012822D1E0480078012818D1DFA001F0A5
:102DF000D1FFBA48E149D1F80610C0F80610DF4902
:102E0000D1F80A10C0F80A10DC49D1F80E10C0F849
:102E10000E10DA49D1F81210C0F8121005E0D8A04F
:102E200001F0B8FFB5A001F0B5FF0120AB498876ED
:102E30000021AA48C1760A3000F028FAA7480E30CF
:102E400000F014FAA548801D00F032FAA64800F000
:102E50004AFAA548C0780090A34883784278017860
:102E6000CFA001F097FFA14800F02BFA9F48C0784F
:102E700000909E48837842780178D1A001F08AFFC3
:102E80009B4800F0FBF99A48C078009098488378F6
:102E900042780178D2A001F07DFF08BD10B58F48BF
:102EA00090490A6802608988818000F0F8F9B34887
:102EB0008C490A6802608988818010BD08B5FFF7D7
:102EC000D5FB01214FF4A070FDF7C0FD4FF4004089
:102ED000ADF8000003208DF8020010208DF80300EB
:102EE0006946C748FDF7FCFA4FF40041C448FDF7B6
:102EF000A2FB4FF48070ADF8000003208DF80200B3
:102F000048208DF803006946BD48FDF7E9FA08BD81
:102F100010B5044624B91021BA48FDF78EFB05E030
:102F2000012C03D11021B748FDF785FB10BD10B56A
:102F30000020FFF7EDFF10BD10B50120FFF7E8FFFF
:102F400010BD10B54FF40041AD48FDF776FB0220EF
:102F500000F0E8FE4FF40041A948FDF76CFB4FF488
:102F6000C86000F0B9FE10BD10B504462046FFF75A
:102F7000D1FB10BD70B504460D46FFF7D8FFC4F372
:102F80000740FFF7F1FFC4F30720FFF7EDFF04F060
:102F9000F801091DC8B2FFF7E7FF2846FFF7E4FF75
:102FA000FFF7CAFF70BD70B504460025FFF7BFFFED
:102FB000C4F30740FFF7D8FFC4F30720FFF7D4FF9F
:102FC00004F0F800FFF7D0FF0020FFF7CDFF054623
:102FD000FFF7B2FF284670BD2DE9F04104460F46C9
:102FE0001546002615B988A001F0D4FEFFF79FFF13
:102FF000C4F30740FFF7B8FFC4F30720FFF7B4FF9F
:1030000004F0F801091DC8B2FFF7AEFF002604E086
:10301000B85DFFF7A9FF701C86B2AE42F8DBFFF780
:103020008BFF2846BDE8F0812DE9F04104460F46AC
:103030001546002615B974A001F0ACFEFFF777FF26
:10304000C4F30740FFF790FFC4F30720FFF78CFF9E
:1030500004F0F800FFF788FF002605E00020FFF7E6
:1030600083FFB855701C86B2AE42F7DBFFF764FFF2
:103070002846BDE8F08110B501F04EF801F037F8B0
:1030800001210846FDF7EFFC10BD10B5FFF7F3FF77
:1030900010BD10B5FFF7EFFF10BD61480068401C80
:1030A0005F49086008460068B0F57A7F0BD30020BE
:1030B00008605C480068401C5A4908605A4800781B
:1030C000401C59490870704770B558A001F062FE65
:1030D000002044682546A84770BD00001B01002061
:1030E0003701002080000020860000208A00002098
:1030F0008E000020920000209E00002020CAB9D33C
:10310000C3B6A8D2E5B5C44950D0C5CFA2C5E4D650
:10311000C357353530300D0A0000000020495020DB
:1031200066726F6D20454550524F4D0D0A000000EC
:1031300020454550524F4DCEB4C5E4D6C32CCAB934
:10314000D3C3B6A8D2E5B5C44950D0C5CFA2C5E413
:10315000D6C357353530302CB2A2D0B4C8EB454574
:1031600050524F4D0D0A00009F0000202049502072
:1031700066726F6D20444843500D0A00AA02002079
:103180002044484350D7D3B3CCD0F2CEB4D4CBD024
:10319000D02CBBF2D5DFB2BBB3C9B9A60D0A000073
:1031A000205735353030204950B5D8D6B7202020AB
:1031B0003A2025642E25642E25642E25640D0A00F0
:1031C00020573535303020D7D3CDF8D1DAC2EB20B7
:1031D0003A2025642E25642E25642E25640D0A00D0
:1031E00020573535303020CDF8B9D8202020202088
:1031F0003A2025642E25642E25642E25640D0A00B0
:103200000020014000080140556E657870656374C8
:10321000656432206C656E67746820300D0A0000AA
:10322000A0000020A4000020A800002020CFB5CDE1
:10323000B3D6D8C6F4D6D0A1ADA1AD0D0A0000001A
:1032400010B5044621460020FFF794FE10BD10B5CE
:103250008020FFF7F5FF10BD0146DC4830F8110073
:1032600070470146DA4830F81100704710B504463F
:10327000042221469001FFF7AFFE10BD10B50446B1
:10328000042221469001FFF7CFFE10BD10B5044681
:10329000042221464FF4A060FFF79EFE10BD10B53A
:1032A0000446062221464FF41060FFF795FE10BD3C
:1032B00010B50446042221464FF47060FFF78CFEDF
:1032C00010BD10B50446042221464FF4A060FFF75C
:1032D000ABFE10BD10B50446062221464FF4106027
:1032E000FFF7A2FE10BD10B50446042221464FF49C
:1032F0007060FFF799FE10BD10B54FF4A850FFF7AE
:1033000052FE10BD10B50446210A4FF4C850FFF715
:1033100031FEE1B24FF4D050FFF72CFE10BD10B5D6
:10332000044621464FF4D850FFF724FE10BD70B577
:103330000446FFF7E1FF60EA0400C5B229464FF4F6
:10334000A850FFF717FE70BD70B504460D46290A58
:1033500041F2082202EB4410FFF70CFEE9B241F201
:10336000083202EB4410FFF705FE70BD70B504464D
:103370000D4641F2086101EB44102946FFF7FAFDC2
:1033800070BD10B504464FF4027101EB4410FFF715
:103390000AFE10BD70B504460D464FF4027101EBF4
:1033A00044102946FFF7E6FD70BD10B504464FF402
:1033B000427101EB4410FFF7F6FD10BD70B50446F5
:1033C0000025002600BF42F2080101EB4410FFF780
:1033D000EAFD064642F2081101EB4410FFF7E3FD57
:1033E00000EB062086B27EB142F2080101EB4410E8
:1033F000FFF7D9FD054642F2081101EB4410FFF733
:10340000D2FD00EB052085B2B542DCD1284670BD67
:1034100070B504460025002600BF42F2086101EBAA
:103420004410FFF7C0FD064642F2087101EB44105C
:10343000FFF7B9FD00EB062086B27EB142F20861CB
:1034400001EB4410FFF7AFFD054642F2087101EBB6
:103450004410FFF7A8FD00EB052085B2B542DCD192
:10346000284670BD2DE9F04104460F46164600255A
:10347000A8462EB9214657A001F08CFCBDE8F0818A
:1034800042F2084101EB4410FFF78DFD054642F280
:10349000085101EB4410FFF786FD00EB052085B2D3
:1034A000280200EB441000F110083246394640462D
:1034B000FFF792FDA81985B2290A42F2084202EBF1
:1034C0004410FFF757FDE9B242F2085202EB4410F4
:1034D000FFF750FD00BFD1E72DE9F04104460F464C
:1034E00016460025A8462EB9214642A001F052FCFE
:1034F000BDE8F08142F6080101EB4410FFF753FDEF
:10350000054642F6081101EB4410FFF74CFD00EBB5
:10351000052085B2280200EB441000F1180832465D
:1035200039464046FFF780FDA81985B2290A42F6C0
:10353000080202EB4410FFF71DFDE9B242F6081243
:1035400002EB4410FFF716FD00BFD1E72DE9F04173
:1035500005460E460027B846002433E0295D41F6B3
:10356000087202EB4410FFF705FD315D41F6086279
:1035700002EB4410FFF7FEFC0020154921F814006F
:10358000124921F81400B7F5804F07DC285D4FF68B
:10359000FF7101EA80200E4921F81400B8F5804F30
:1035A00007DC305D4FF6FF7101EA8020074921F802
:1035B0001400074830F814000744044830F8140099
:1035C0008044641C082CC9DBBDE8F0815A0100204E
:1035D0004A01002043483A20256420556E657870E2
:1035E000656374656431206C656E67746820300DA6
:1035F0000A00000043483A20256420556E65787023
:10360000656374656432206C656E67746820300D84
:103610000A00000010B504464FF4847101EB441019
:103620001021FFF7A7FC00BF4FF4847101EB441099
:10363000FFF7B9FC0028F7D14FF4027101EB4410F9
:10364000FF21FFF797FC10BD2DE9F04104460D4620
:103650001646984605F00F0001280FD005F00F0020
:1036600002280BD005F00F00032807D005F00F004B
:10367000042803D005F00F00052841D12046FFF7AC
:10368000C9FF45EA0801082202EB4410FFF772FC6B
:1036900076B1310A4FF4816202EB4410FFF76AFC05
:1036A000F1B24FF4A16202EB4410FFF763FC15E0A6
:1036B000FE480088401CFD4908800A461288110A0D
:1036C0004FF4816202EB4410FFF754FCF74A117883
:1036D0004FF4A16202EB4410FFF74CFC4FF48471ED
:1036E00001EB44100121FFF745FC00BF4FF484714A
:1036F00001EB4410FFF757FC0028F7D1012700E049
:1037000000273846BDE8F08170B504464FF4427199
:1037100001EB4410FFF747FC132811D14FF48471DB
:1037200001EB44100221FFF725FC00BF4FF4847128
:1037300001EB4410FFF737FC0028F7D1012500E02A
:103740000025284670BD2DE9F04105460C46164679
:103750002078FF2808D16078FF2805D1A078FF28BD
:1037600002D1E078FF2808D0207828B9607818B90D
:10377000A07808B9E07800B10EB900275CE0012715
:10378000217840F6084202EB4510FFF7F3FB617821
:1037900040F6085202EB4510FFF7ECFBA17840F62B
:1037A000086202EB4510FFF7E5FBE17840F608728E
:1037B00002EB4510FFF7DEFB310A41F2080202EB93
:1037C0004510FFF7D7FBF1B241F2081202EB4510AA
:1037D000FFF7D0FB4FF4847101EB45100421FFF794
:1037E000C9FB00BF4FF4847101EB4510FFF7DBFB11
:1037F0000028F7D117E04FF4427101EB4510FFF7B5
:10380000D2FB172800D116E02846FFF7BAFD10F0CA
:10381000080F08D04FF4027101EB45100821FFF7A3
:10382000A9FB002707E04FF4427101EB4510FFF7B9
:10383000BAFB1528DFD100BF3846BDE8F08110B5CE
:1038400004464FF4847101EB44100821FFF792FB0A
:1038500000BF4FF4847101EB4410FFF7A4FB002874
:10386000F7D110BD2DE9F0470446884616460025DD
:103870000027A9462046FFF7F4FCB04204DA2046B0
:10388000FFF7EFFC074600E0374600BF2046FFF792
:1038900095FD81464FF4427101EB4410FFF783FB25
:1038A0000546172D03D01C2D01D0002701E0B94596
:1038B000ECDB00BF3A4641462046FFF7D3FD4FF40C
:1038C000847101EB44102021FFF754FB00BF4FF43B
:1038D000847101EB4410FFF766FB0028F7D113E079
:1038E0004FF4427101EB4410FFF75DFB0546172DC5
:1038F0000AD01C2D08D06EA001F04CFA2046FFF72C
:1039000089FE0020BDE8F0874FF4027101EB4410FE
:10391000FFF749FB00F010001028E1D14FF40271CD
:1039200001EB44101021FFF725FB4FF4027101EB6E
:1039300044101021FFF71EFB3846E3E72DE9F04164
:1039400004460E4615460027002D15DD2A46314651
:103950002046FFF7C1FD4FF4847101EB4410402174
:10396000FFF708FB00BF4FF4847101EB4410FFF731
:103970001AFB0028F7D12F463846BDE8F0812DE923
:10398000F0470446894616461D46089F4FF000083A
:103990002046FFF766FCB04204DA2046FFF761FCE0
:1039A000804600E0B046287828B9687818B9A87829
:1039B00008B9E87800B117B94FF0000863E029783A
:1039C00040F6084202EB4410FFF7D4FA697840F65B
:1039D000085202EB4410FFF7CDFAA97840F60862CE
:1039E00002EB4410FFF7C6FAE97840F6087202EBE2
:1039F0004410FFF7BFFA390A41F2080202EB441003
:103A0000FFF7B8FAF9B241F2081202EB4410FFF7DF
:103A1000B1FA424649462046FFF724FD4FF484712F
:103A200001EB44102021FFF7A5FA00BF4FF4847189
:103A300001EB4410FFF7B7FA0028F7D112E04FF47A
:103A4000027101EB4410FFF7AEFA10F0080F09D035
:103A50004FF4027101EB44101821FFF78BFA00209C
:103A6000BDE8F0874FF4027101EB4410FFF79BFAB9
:103A700000F010001028E2D14FF4027101EB441065
:103A80001021FFF777FA4046EAE72DE9FC5F05468B
:103A90008A4691461E46DDF8308000270024A34662
:103AA000B9F1000F71DD42F608010BE0BA00002009
:103AB00053454E445F4F4B2050726F626C656D21D1
:103AC000210D0A0001EB4510FFF76DFA044642F69E
:103AD000081101EB4510FFF766FA00EB042084B2F1
:103AE000200200EB451000F1180B082101EB4510F6
:103AF000FFF759FA00F00700022804D0032845D048
:103B0000042878D178E0082269465846FFF78CFAF5
:103B100004F1080084B29DF8000030709DF80100A7
:103B200070709DF80200B0709DF80300F0709DF871
:103B30000400A8F800009DF8050098F8001000EBBC
:103B40000120A8F800009DF806709DF8070000EB22
:103B5000072087B2200200EB451000F1180B3A460F
:103B600051465846FFF760FAE01984B2210A42F63E
:103B7000080202EB4510FFF7FDF9E1B242F6081228
:103B800002EB4510FFF7F6F96AE07AE00622694693
:103B90005846FFF749FAA01D84B29DF80000307026
:103BA0009DF8010070709DF80200B0709DF8030050
:103BB000F0709DF804709DF8050000EB072087B2B7
:103BC000200200EB451000F1180B3A4651465846CA
:103BD000FFF72AFAE01984B2210A42F6080202EB42
:103BE0004510FFF7C7F9E1B242F6081202EB4510A3
:103BF000FFF7C0F934E032E0022269465846FFF789
:103C000013FAA01C84B29DF800709DF8010000EB2F
:103C10000720801E87B240F2EA50874204DD1AA0D6
:103C200001F0B8F800BFFEE7200200EB451000F1FC
:103C3000180B3A4651465846FFF7F6F9E01984B298
:103C4000210A42F6080202EB4510FFF793F9E1B2B0
:103C500042F6081202EB4510FFF78CF900E000BFB6
:103C600000BF4FF4847101EB45104021FFF782F94A
:103C700000BF4FF4847101EB4510FFF794F9002861
:103C8000F7D13846BDE8FC9F646174615F6C656E76
:103C9000206F76657220313531340D0A0000000046
:103CA0004FF0E021096921F004014FF0E022116199
:103CB000C21700EB5272C2F3C702FD4B1A701946CD
:103CC000097801EB4102C2EBC1114FF6FF7202EA23
:103CD000C101F84A118070470146F64A12884A43EA
:103CE0004FF0E0235A6100229A6101221A6100BF5D
:103CF0004FF0E022106910F0010F02D010F4803F65
:103D0000F6D000224FF0E0231A619A61704710B597
:103D1000044604E04FF47A70FFF7DEFF641E002CC7
:103D2000F8D110BD0146E24A12784A434FF0E02331
:103D30005A6100229A6101221A6100BF4FF0E0220D
:103D4000106910F0010F02D010F4803FF6D000226D
:103D50004FF0E0231A619A6170470146302905DB74
:103D6000392903DCA1F13000C0B27047612905DBBD
:103D7000662903DCA1F15700C0B2F6E7412905DB53
:103D8000462903DCA1F13700C0B2EEE70846ECE7B4
:103D900030B502460B46002405E012F8010BFFF790
:103DA000DCFF04FB030410780028F6D1A0B230BD7C
:103DB00030B502460B46002405E012F8010BFFF770
:103DC000CCFF04FB030410780028F6D1204630BD58
:103DD0002DE9F04104460D461646701EC7B220225A
:103DE0003146284600F0C6FC00BF0A2094FBF0F1E3
:103DF00000FB11403030C2B23846791ECFB22A548F
:103E00000A2094FBF0F080B2041EEEDCBDE8F081E5
:103E10002DE9F04104460F46904626460CB1207825
:103E200010B90020BDE8F0810BE03078FFF795FF76
:103E30000546002D03DBBD4201DA761C01E00020BF
:103E4000F0E730780028F0D1B9B22046FFF7A0FFA4
:103E5000C8F800000120E5E710B50B46002104E09A
:103E6000445C9C4200D14254491C445C002CF7D174
:103E700010BD014600200A06100C40EA11207047D0
:103E8000014600200806C1F3072240EA0240C1F3C0
:103E9000074240EA022040EA116070472DE9F047EE
:103EA00081460E4617461D463146484600F074FCD2
:103EB0000446304600F08EFC04443946204600F0AB
:103EC0006BFC8246AAEB04001FFA80F842462146AA
:103ED000284600F073FC002005F80800BDE8F087D4
:103EE0002DE9F04188B006460F463146684600F09D
:103EF00078FC6C4600251BE06FA1204600F07AFCA0
:103F000004462078302809D16078782806D110211D
:103F1000A01CFFF73DFF00F0FF0805E00A21204646
:103F2000FFF736FF00F0FF0807F8058000246D1C3E
:103F3000042DE1DB08B0BDE8F0811CB5044620216A
:103F40005E4800F01EFCE0B2C4F30721220EC4F369
:103F50000743CDE900105AA1584800F02BFF5748FD
:103F60001CBD1CB504461021584800F00AFCE0B204
:103F7000C4F30721220EC4F30743CDE9001054A176
:103F8000524800F0F7FE51481CBDF0B58FB0064610
:103F90000F4601AC314601A800F023FC00252AE0C1
:103FA00045A1204600F026FC044614B900200FB0BD
:103FB000F0BD207830280AD16078782807D10EAA81
:103FC0001021A01CFFF724FF48B90020EFE70EAA3C
:103FD0000A212046FFF71CFF08B90020E7E70E98EA
:103FE00078550E98002802DB0E98FF2801DD00208E
:103FF000DDE700246D1C042DD2DB0120D7E700B5DE
:1040000003461846FFF735FF00BD00B503461846C6
:10401000FFF736FF00BD10B504462046FFF7EFFF5F
:1040200010BD10B504462046FFF7EFFF10BDF0B5F8
:1040300002460D46C5F34F06002400210EE012F89B
:1040400011304FF6FF7707EA0323012707EB4107FB
:10405000D75D1F44BBB21C444F1CB9B2B142EEDB6A
:1040600015F0010F03D012F8113004EB0324A0B2B5
:1040700000EB1447FF43B8B2F0BDF1B500246D4624
:1040800000BF30E004F5A060FEF78DFF295D00EA77
:10409000010704F57060FEF786FF064604F5A06090
:1040A000FEF781FF0640B7421CD00120F8BD00009A
:1040B000BC000020BE0000202E0000006A0100208D
:1040C00025642E25642E25642E2564008A01002097
:1040D000253033642E253033642E253033642E256D
:1040E00030336400641C042CCCDB0020F8BD08B520
:1040F0004FF4E060FCF726F91C208DF8000000204A
:104100008DF8010003208DF8020001208DF80300D6
:104110006846FCF71CF908BD0EB501210846FCF7FE
:10412000A2FC4FF47A70ADF804004720ADF800000F
:104130000020ADF80600ADF8020069464FF080405F
:10414000FCF746FF01218807FDF764FD01221146B7
:104150009007FDF7B4FA01218807FDF795FA0021D1
:104160000120FCF780FC0EBD2DE9F047C8B0814668
:104170000C46174640F6B830279027A823463A4603
:1041800028A900904846FFF780FC80469DF8A000D3
:10419000002854D19DF8A0008DF814009DF8A100CE
:1041A0008DF815009DF8A2009DF8A31000EB0120EA
:1041B00080B2ADF816009DF8A4009DF8A51000EBA4
:1041C000012080B2ADF818009DF8A6009DF8A71058
:1041D00000EB012080B2ADF81A00002508E005F1DF
:1041E000080028A9085C41B207A84155681C85B29F
:1041F000A8F10800A842F2DC414628A8FFF717FF03
:10420000C04386B2A6F57F40FF3804D03146F1A006
:1042100000F0C0FD73E0BDF81800FFF7F0FE824625
:10422000B81DE178CDE9001A0290A3786278217870
:10423000EDA000F0AFFD0120F64908705FE09DF8A9
:10424000A000082858D19DF8A1008DF815009DF810
:10425000A2008DF814009DF8A2009DF8A31000EBB9
:10426000012080B2ADF816009DF8A4009DF8A510BD
:1042700000EB012080B2ADF818009DF8A6009DF873
:10428000A71000EB012080B2ADF81A00002508E06D
:1042900005F1080028A9085C41B207A84155681C2F
:1042A00085B2A8F10800A842F2DCBDF81660002033
:1042B000ADF81600BDF81600B04209D0BDF81600E2
:1042C000FFF79DFE824652463146D3A000F062FDC4
:1042D000B91DBDF81A00BDF81820E378CDE9003209
:1042E000CDE90201A37862782178D64800F052FD2A
:1042F0000120C849087002E0D3A000F04BFD002067
:1043000048B0BDE8F087F8B506460D460020C14923
:1043100008700820D049087000204870CF490888EC
:104320000988491CCD4B1980FFF769FECA4988806E
:10433000CB4908880988491CC94B1980FFF75FFEE3
:10434000C549C88000240CE02046E11704EB5171F8
:10435000C910A4EBC1014AB2BF4908310A55601C1B
:1043600084B2802CF0DB0020BB4948808821BA4809
:10437000FFF75DFE0746FFF742FEB749488040F66B
:10438000B8302B46882200903046FFF7F8FA18B96B
:10439000B4A000F0FFFC07E0E8780090AB786A7802
:1043A0002978BAA000F0F6FC0020F8BD2DE9F04114
:1043B00004460F464FF000080026002579E00A2049
:1043C000FFF78AFC2046FEF7F0FF10B132284FD1EC
:1043D0001FE02046FFF71EF941F2084101EB4410AF
:1043E0000121FEF7C7FD002340F6B8320321204625
:1043F000FFF72AF900BF2046FEF7D7FF3228FAD18F
:104400004FF47A70FFF78EFC4FF47A70FFF78AFC56
:104410002FE039462046FFF776FFA4480078401C7D
:10442000A249087021E02046FEF7F2FFB0F1000833
:104430000FDD1FFA88F239462046FFF795FE4FF44C
:10444000FA70FFF76FFC9A480078401C9849087092
:104450000CE0C82E04DD97A000F09CFC002605E0CF
:10446000701CC6B20120FFF737FCDCE700BF00E09C
:1044700000BF00BF8E480078C8B18D4802788B48D5
:10448000017892A000F086FC894800788749097875
:1044900088420CD18648007884490978884203D143
:1044A00094A000F077FC02E096A000F073FC681C7A
:1044B000C5B2032D83DDBDE8F0812DE9F047064646
:1044C0000D4617464FF00008002471E01CB1611E34
:1044D00090A000F05FFC3046FEF767FF10B1322875
:1044E0004AD118E03046FFF795F841F2084101EB58
:1044F00046100121FEF73EFD00BF3046FEF755FF96
:104500003228FAD14FF47A70FFF70CFC4FF47A702E
:10451000FFF708FC31E039463046FFF7F4FE634808
:104520000078401C6149087023E03046FEF770FFB8
:10453000B0F100090DDD4A4639463046FFF714FE5A
:104540005B480078401C5A4908703248007800B136
:1045500010E0B8F1640F05DD71A000F01BFC4FF016
:10456000000807E008F101001FFA80F83220FFF789
:10457000D9FBDAE700BF00E000BF00BF4B4800787E
:10458000A84213DB4A480278484801784FA000F05F
:1045900001FC4748007845490978884203D155A075
:1045A00000F0F8FB02E057A000F0F4FB601C84B2BE
:1045B000681C84428ADBBDE8F08710B55EA000F07D
:1045C000E9FB4FF47A70FFF787FB69490020FFF79A
:1045D000EDFE10BD746D705F636865636B73756D20
:1045E000203D2025780D0A0020C0B4D7D4202564B2
:1045F0002E25642E25642E256420B5C4BBD8B8B4FE
:1046000020A3BA49443D257820D7D6BDDA3D25649C
:10461000200D0A00C4000020200A20436865636B57
:1046200053756D20697320696E20636F72726563C4
:10463000742025782073686F6C642062652025786B
:10464000200A0000085B000820556E6B6F6E776EC5
:10465000206D73672E200A009A010020C000002000
:10466000C20000200D0A204661696C20746F20731F
:10467000656E642070696E672D7265706C7920704C
:1046800061636B65742020720A00000020D5FDD4A0
:10469000DA2050696E67A3BA2025642E25642E2582
:1046A000642E256420200D0A00000000C5000020B3
:1046B000C6000020526571756573742054696D657C
:1046C000206F75742E200D0A0000000050696E677F
:1046D0002052657175657374203D2025642C20502F
:1046E000494E475F5265706C79203D2025640D0A64
:1046F0000000000050494E47205355434345535353
:104700000D0A20005245504C595F4552524F520DF0
:104710000A2000000D0A4E6F2E25640D0A000000CD
:104720000D0A526571756573742054696D65206F4B
:1047300075742E200D0A00002D2D2D2D2D2D2D2DC3
:104740002D2D2D2D50494E475F544553545F5354E2
:104750004152542D2D2D2D2D2D2D2D2D2D2D2D2D29
:104760002D2D2D2D2D2D2D2D2D2D0D0A0000000070
:1047700098000020D2B201E000F8012B491EFBD2C4
:1047800070470022F6E710B513460A46044619465C
:10479000FFF7F0FF204610BD30B505462A460B4610
:1047A00012F8010B13F8014B08B1A042F8D01CB16C
:1047B000002802D06D1CF1E7284630BD10B5044634
:1047C00004E00B7800F8013B03B1491C521EF8D2FB
:1047D000204610BD421C10F8011B0029FBD1801A95
:1047E0007047034611F8012B00F8012B002AF9D17C
:1047F0001846704770B50F4D00B92868002412E0C4
:104800000A4602E09E4203D0521C1378002BF9D1D5
:10481000DAB2224305D02BB124B1002100F8011BEC
:1048200004E00446401C0678002EE9D128602046AA
:1048300070BD0000C800002030B50B4601460020C6
:104840002022012409E021FA02F59D4205D303FA52
:1048500002F5491B04FA02F52844151EA2F10102D3
:10486000F1DC30BD2DE9F05F0546002092469B4605
:1048700088460646814640241BE028464146474676
:10488000224600F0F6F953465A46C01A914110D319
:1048900011461846224600F0DDF92D1A67EB010893
:1048A0004F4622460120002100F0D4F917EB000901
:1048B0004E41201EA4F10104DFDC484631462A4661
:1048C0004346BDE8F09F2DE9FE4F804681EA030094
:1048D000C00F0C46009021F0004123F00045B8EBDA
:1048E0000200A94105D24046214690461C460B468F
:1048F000024623F00040104304D14046214603B055
:10490000BDE8F08F270DC7F30A00C3F30A510290E8
:10491000401A0190402866DAC3F3130040F4801B6C
:104920000098924620B10023D2EB030A63EB0B0BF5
:1049300001985946C0F14002504600F08BF90646F6
:104940000D4650465946019A00F0A3F910EB0800B5
:104950006141002487EA115284EAE7731A433BD08D
:10496000009A3AB3019A012A4FEA075210DC001B61
:1049700061EB02014FF0004202EA0752CDE900422A
:10498000001C41F5801132462B4600F0A1F9B6E734
:10499000001B61EB0201001C41F5801300185B4114
:1049A0002018A2F5001747EB030140EAD570B619AD
:1049B0006D4111E06D084FEA360645EAC0754FEAD1
:1049C0000752001B61EB0201001C41F580114908F0
:1049D0004FEA30000019514132462B4603B0BDE882
:1049E000F04F00F068B90098012240000023D0EB9E
:1049F000020263EBE073009821464FEAE074B8EBE3
:104A0000000061EB0401E9E783F000435BE781F01C
:104A1000004158E72DE9FE4F81EA030404F0004409
:104A200021F0004100944FF0000B23F0004350EAC6
:104A3000010402D052EA030404D10020014603B06D
:104A4000BDE8F08FC3F30A54C1F30A552C44A4F215
:104A5000F3340194A0FB0254C1F3130141F480111B
:104A6000C3F3130343F4801301FB024400FB034E22
:104A7000840A970A44EA815447EA8357A4FB0768EB
:104A800002958D0A05FB07854FEA932C04FB0C5415
:104A90002705029D4FEA065847EA1637B5EB080589
:104AA0006EEB070C870E920E47EA811742EA8312DB
:104AB000A7FB0201B6EB0B0164EB00042B0D43EAEC
:104AC0000C335E1844EB1C50DA465146E7FB0201FA
:104AD000C5F313044FEA0B3343EA14534FEA04328D
:104AE000019C43EA0603A4F10C040294009CCDE966
:104AF00000B400F0EDF8A2E72DE9F04D81EA0304DF
:104B000004F0004B21F0004514464FF0000A23F05A
:104B1000004150EA050220D054EA01021DD0C5F33D
:104B20000A570246C5F31303C1F31300C1F30A5633
:104B300040F4801543F48013A7EB0608101BD646FB
:104B400008F2FD3873EB050002D308F1010801E01B
:104B500092185B41B8F1000F03DA00200146BDE86E
:104B6000F08D00204FF48011064684460EE0171B9E
:104B700073EB050705D3121B63EB050306434CEAF1
:104B8000010C49084FEA300092185B4150EA0107D6
:104B9000EDD152EA030012D082EA040083EA050153
:104BA000084303D100224FF0004308E0101BAB4143
:104BB00002D20122002302E06FF0010253101AEB2F
:104BC00006004CEB085110EB0A0041EB0B01BDE86D
:104BD000F04D00F070B8C1F30A52C1F3130140F276
:104BE000FF3341F480119A4202DA002001467047F7
:104BF00040F233439A42A2F2334202DC524200F0C6
:104C000038B800F027B8000030B5002904DB4FF0B9
:104C10000044404264EB0101002B04DB4FF00044F0
:104C2000524264EB0303994208BF904230BD00003A
:104C3000064C074D06E0E06840F0010394E80700E9
:104C400098471034AC42F6D3FBF776FA4C5B000879
:104C50006C5B0008202A04DB203A00FA02F10020F5
:104C600070479140C2F1200320FA03F319439040AA
:104C70007047202A04DB203A21FA02F00021704715
:104C800021FA02F3D040C2F12002914008431946B4
:104C90007047202A06DBCB17203A41FA02F043EA9C
:104CA000E07306E041FA02F3D040C2F120029140E5
:104CB00008431946704710B5002B08DA401C41F133
:104CC000000192185B411A4301D120F0010010BD90
:104CD0002DE9F04D92469B4611B1B1FA81F202E006
:104CE000B0FA80F220329046FFF7B4FF04460F4638
:104CF00040EA0A0041EA0B0153465A46084303D1F1
:104D000020463946BDE8F08D114653EA010015D022
:104D1000C8F140025046FFF7ACFF05460E4650462C
:104D200059464246FFF796FF084301D0012000E0B4
:104D30000020054346EAE0762C4337430A984FEAC1
:104D40004453A0EB08004FEAD4240A304FF000028D
:104D500044EA47544FEAD72502D500200146D1E75F
:104D6000010510196941DDE9084500196941BDE8EF
:104D7000F04DA0E70FB4054B10B503A9044A029803
:104D800000F0EEFA10BC5DF814FB0000832100086F
:104D9000CC0000200FB4054B10B503A9044A0298BB
:104DA00000F0DAF810BC5DF814FB00008321000865
:104DB000CC0000200FB4084B10B504A902AA039838
:104DC00000F0CAF8044602A9002000F097FE204631
:104DD00010BC5DF814FB0000FD5A000802E008C892
:104DE000121F08C1002AFAD170477047002001E065
:104DF00001C1121F002AFBD1704700002DE9FF5F9F
:104E0000DDE90220010DDDF838B0024310D10F9822
:104E100001244CA2012808D0002100980F9BC0E972
:104E20000021C0E90243BDE8FF9F6FEA0B01F4E7F0
:104E3000A1F2FF3144F6105041430D140F980128A0
:104E40000ED0A5EB0B00401C4FF000043E4EDFF8E7
:104E5000FC90B0F1000AA04605DACAF1000717E09D
:104E6000CBF10000F0E7074612E0F80707D0224632
:104E7000334640464946FFF7CDFD804689462246E7
:104E8000334610461946FFF7C5FD04460E467F100F
:104E9000002FEAD1DDE90201BAF1000F42464B468C
:104EA00002DAFFF7B7FD01E0FFF726FE04460E46E3
:104EB0000022274BFFF7A8FE03D84FF0FF30014632
:104EC00007E00022234B20463146FFF7FCFCFFF7AA
:104ED00082FE102409E0002C0ADB0A220023FFF7DF
:104EE000C1FC019B30321A55641E50EA0102F2D116
:104EF000641C019AC4F1110314440F9A012A09D0C9
:104F00000122084301D15B450FDD4FF0000205F19E
:104F100001050DE0084303D1A3EB0B056D1E09E06D
:104F200000204FF0110B0F9088E701DA00226D1E70
:104F3000002A83D000980F99C0E90231C0E90045EA
:104F400071E7000030000000000024400000F03F46
:104F50000000F0430000E03F2DE9FF4F8DB00F4609
:104F600005460026DEE1252874D100246D1CF14998
:104F7000A246A14601222B78203B02FA03F0084208
:104F800002D004436D1CF6E728782A2810D06FF071
:104F90002F022878A0F13001092915D80AEB8A01DF
:104FA00002EB410144F0020400EB010A6D1CF0E742
:104FB00057F804ABBAF1000F03DA44F40054CAF115
:104FC000000A44F002046D1C28782E2817D115F829
:104FD000010F44F004042A280ED06FF02F02287825
:104FE000A0F1300109290AD809EB890102EB41013E
:104FF00000EB01096D1CF2E757F8049B6D1C287843
:105000006C280FD006DC4C2817D068280DD06A28F1
:1050100014D104E0742810D07A280FD10DE044F4A4
:1050200000140AE044F4801401E044F44014697868
:10503000814202D16D1C04F580146D1C2A786E2A01
:1050400020D00DDC632A33D005DC002A6FD0582A2B
:1050500012D1A2E011E0642A6AD0692A0CD167E07B
:10506000732A2FD004DC6F2A6FD0702A04D199E004
:10507000752A6BD0782A6AD01046DDE90F12904766
:10508000761C4EE1C4F30250022806D003280AD051
:10509000042801CF0AD0066043E101CF4FEAE67150
:1050A000C0E900613DE101CF06803AE1067038E1D8
:1050B00017F8040B8DF8000000208DF80100EB4676
:1050C000012003E057F804BB4FF0FF3061074FF0B9
:1050D000000102D40DE008F10101884649450FDACC
:1050E0008045F8DB1BF808100029F4D108E008F12E
:1050F000010188468142FADB1BF808100029F6D12D
:10510000DDE90F23AAEB08008146214600F0C6FC2A
:10511000304400EB080604E0DDE90F121BF8010B38
:105120009047B8F10108F7D221464846F4E0FDE087
:105130000A21C4F302534FF0000B0891022B07D051
:1051400001CFC117032B09D00AE034E023E024E0AB
:10515000FF1D27F00707F7E8020105E000B2C117BD
:10516000042B01D140B2C117002907DA4FF0000C1F
:10517000D0EB0C006CEB01012D2302E0230504D5DC
:105180002B238DF82430012303E0E30701D02023F3
:10519000F7E7984650E00A210EE010204FF0000B90
:1051A00008900CE010214FF0000B44F004044FF085
:1051B0000809089103E008214FF0000B0891C4F39F
:1051C0000253022B04D001CF0021032B06D006E0AE
:1051D000FF1D27F00707F7E8020103E080B2042B68
:1051E00000D1C0B24FF00008230725D5702A2AD07D
:1051F000DDF820C08CF0100C5CEA0B0C09D150EAF1
:10520000010306D030238DF824308DF825200223A9
:105210009846DDF820C08CF0080C5CEA0B0C0BD132
:1052200050EA010301D1630706D530238DF82430FD
:105230004FF00108A9F10109582A09D03EA20B92AA
:1052400008AA0A9211E040238DF824300123DFE7F9
:105250003EA2F4E75B46089AFFF704FB0B9B9B5CBE
:105260000A9AA2F101020A92137050EA0102F1D1E6
:105270000A98ADEB000000F1200B600702D524F482
:10528000803401E04FF00109D94502DDA9EB0B00A4
:1052900000E0002000EB0B0141440890AAEB010A5A
:1052A000E00306D4DDE90F232146504600F0F6FB6B
:1052B0000644002008E009A911F80900DDE90F12F1
:1052C0009047761C09F1010081464045F3DBE0037D
:1052D0000CD5DDE90F232146504600F0DFFB0644E4
:1052E00004E0DDE90F1230209047761C0899481E33
:1052F00008900029F5DC08E00A980A990078491C12
:105300000A91DDE90F129047761CBBF10001ABF169
:10531000010BF1DC21465046DDE90F2300F098FB3C
:1053200006446D1C287800287FF41DAE11B030466D
:10533000BDE8F08F0928010030313233343536377B
:1053400038396162636465660000000030313233D1
:105350003435363738394142434445460000000071
:105360002DE9FF4F95B09B4689460646002512E27F
:10537000252878D10024761CF94A27460121059476
:105380003378203B01FA03F0104202D00443761C2C
:10539000F6E730782A2811D06FF02F033078A0F18B
:1053A0003002092A16D8059A44F0020402EB820260
:1053B00003EB42021044761C0590EFE759F8042BEA
:1053C0000592002A03DA504244F40054059044F058
:1053D0000204761C30782E2816D116F8010F44F0FE
:1053E00004042A280DD06FF02F023078A0F130038A
:1053F000092B09D807EB870302EB4303C718761C78
:10540000F3E759F8047B761C30786C280FD006DC63
:105410004C2817D068280DD06A2814D104E07428CD
:1054200010D07A280FD10DE044F400140AE044F4BF
:10543000801401E044F440147278824202D1761C58
:1054400004F58014761C307866280BD013DC5828BD
:1054500077D009DC002875D04528F6D04628F4D04E
:1054600047281AD19FE118E0632835D0642879D005
:10547000652812D197E1702873D008DC6728F1D035
:1054800069286FD06E280DD06F2806D1B5E073283B
:105490002CD0752875D0782874D05A461799904723
:1054A0006D1C76E1C4F30250022809D003280DD008
:1054B000D9F8001004280DD00D6009F1040968E145
:1054C000D9F80010EA17C1E90052F6E7D9F8001040
:1054D0000D80F2E70D70F0E719F8041B8DF800104D
:1054E00000208DF80100EA46012003E059F804ABE2
:1054F0004FF0FF3061074FF0000102D40DE008F1DA
:1055000001018846B9420FDA8045F8DB1AF8081025
:105510000029F4D108E008F1010188468142FADB54
:105520001AF808100029F6D105985B46A0EB080789
:1055300021463846179A00F0C9FA284400EB0805BE
:1055400007E04DE02BE10DE01AF8010B5A461799E0
:105550009047B8F10108F7D25B4621463846179AC2
:1055600014E142E00A220092C4F302524FF0000A12
:10557000022A08D059F804CB032A4FEAEC710AD06A
:105580000DE029E02AE009F1070121F00702F2E825
:1055900002C1914609E00FFA8CFC4FEAEC71042A33
:1055A00003D14FFA8CFC4FEAEC71002907DA0A4666
:1055B0000021DCF1000C61EB02012D2202E022054A
:1055C00004D52B228DF80420012203E0E20701D04C
:1055D0002022F7E7904653E00A2102E010220DE076
:1055E00010214FF0000A00910BE010224FF0000A4A
:1055F00044F004040827009203E008224FF0000A58
:105600000092C4F30252022A05D059F804CB0021BB
:10561000032A08D009E009F1070121F00702F2E8A6
:1056200002C1914605E01FFA8CFC042A01D10CF05E
:10563000FF0C4FF00008220722D5702827D0009BCE
:1056400083F0100353EA0A0309D15CEA010206D091
:1056500030228DF804208DF8050002229046009B30
:1056600083F0080353EA0A030AD15CEA010201D17C
:10567000620705D530228DF804204FF001087F1E07
:10568000582809D037A003900EA8029013E04022BA
:105690008DF804200122E1E737A0F4E75346604685
:1056A000009AFFF7DFF884460398825C0298A0F125
:1056B0000100029002705CEA0100EFD1029806A995
:1056C000A1EB000000F1200A600702D524F4803429
:1056D00000E00127574502DDA7EB0A0000E00020AB
:1056E00000EB0A01009005984144A0EB01000590F1
:1056F000E00306D45B462146179A059800F0E6F9C8
:105700000544002706E001A85A46C05D1799904756
:105710006D1C7F1C4745F6DBE0030CD55B4621463C
:10572000179A059800F0D2F9054404E030205A4653
:10573000179990476D1C0099481E00900029F5DCD0
:1057400008E0029802995A460078491C029117997C
:1057500090476D1CBAF10001AAF1010AF1DC6BE17E
:105760000928010030313233343536373839616237
:1057700063646566000000003031323334353637FB
:1057800038394142434445460000000000F073F9B7
:10579000054406F10106307800287FF4E9AD19B020
:1057A0002846BDE8F08F620700D4062709F10702FA
:1057B00022F0070CFCE80223E14603F000485FEA10
:1057C000080C02D00FF27C2C0DE05FEA045C02D5DD
:1057D0000FF2742C07E05FEAC47C02D00FF26C2C4D
:1057E00001E0AFF2700C4FF0FF3823F00043CDF82A
:1057F00050C065280CD006DC452809D046281DD0AD
:1058000047283ED13EE0662818D0672839D139E0D4
:105810000021112F01DB112000E0781CCDE90001EF
:1058200006A90EA8FFF7EAFADDE90F010E9A039127
:105830000021009207F1010A04914EE04FF0004070
:105840000097CDE9011006A90EA8FFF7D7FADDE908
:105850000F0203920E9B11990022DDF80CA0009319
:10586000049219B907F1010100EB010AB7EB0A0034
:1058700004D4C0F1FF3007F1010A0490AAEB07003D
:10588000019046E0012F00DA01270021112F01DDF0
:10589000112000E03846CDE9000106A90EA8FFF767
:1058A000ADFADDE90F010E9A0391002104910092F7
:1058B000BA4621070CD40399514500DA8A46BAF159
:1058C000010F05DD009AAAF10101515C302908D0D1
:1058D000B84202DA10F1040F06DA0121CDE9011015
:1058E00017E0AAF10101E9E7002805DC0499014469
:1058F0000491AAEB000102E0411C514500DD8A46FB
:105900000499A0EB010000F1010001904FF000406C
:105910000290200704D40198504501DBCDF80480A3
:1059200000208DF84F0002980DF14F07B0F1004FA5
:1059300025D02B200E9002984FF0020800280CDA98
:10594000404202902D200E9007E00A210298FEF7B7
:1059500073FF3031029007F8011DB8F10001A8F182
:105960000108F2DC02980028EFD1791E0E98087029
:10597000307800F0200040F0450007F8020D12A832
:10598000A0EB070000F107081498007800B101208F
:1059900000EB0A01019801EBE07105984144A0EB8E
:1059A0000100A0F101000590E00306D45B4621460A
:1059B000179A059800F08AF805441498007820B1E9
:1059C0005A461799904705F10105E00323D55B4638
:1059D0002146179A059800F079F805441BE00498D1
:1059E000002807DBDDE90301884203DD0098405C05
:1059F000179901E0179930205A46904704986D1C7A
:105A0000401C04900198401E019004D12E205A465B
:105A1000179990476D1CBAF10001AAF1010ADEDC6A
:105A200005E017F8010B5A46179990476D1CB8F11D
:105A30000001A8F10108F4DC5B462146179A05989D
:105A4000A4E600002D0000002B0000002000000054
:105A50002DE9F041044600251E461746880405D46A
:105A600006E039462020B04705F10105641EF8D54F
:105A70002846BDE8F0812DE9F041044600251E4688
:105A80001746880405D406E039462020B04705F1C2
:105A90000105641EF8D52846BDE8F0812DE9F041E6
:105AA000044600251E469046C80301D5302700E075
:105AB0002027880405D506E041463846B04705F161
:105AC0000105641EF8D52846BDE8F0812DE9F041B6
:105AD000044600251E469046C80301D5302700E045
